{
  "transactions": [
    {
      "hash": "0x3c23fb9c98d114aafdfb2483fa6da70de8517322320e796794c839ba09870b87",
      "transactionType": "CALL",
      "contractName": null,
      "contractAddress": "0x7f0e4e7c48745b6e4f72737ff451c0a854a97fa0",
      "function": "settle((uint256,address,uint256,uint256,address,address,uint256,uint256,address,uint256,uint256,uint256,bytes32,uint256),bytes,bytes)",
      "arguments": [
        "(1, 0x68ce71c510f0f7Ff6E47C5D982F73cDEE87EBF55, 11155111, 1, 0x66501a555529cAB145d42b529E44C8C4fE1c811b, 0x00000000000000000000000000000000000003E7, 100000000000000000000, 50000000000000000000, 0x68ce71c510f0f7Ff6E47C5D982F73cDEE87EBF55, 10000000000000000000, 1771335096, 1, 0x9c971b99bd32a1aa360aab5e089466188bc4eba241b33758f9e8c059216a0516, 1000000000000000)",
        "0xfccad62082789927a94d1966780a6f6796eba48539cb4473f09c8dd147f2ca7126665a5d1504641083301c93dc35cd4f84764d9af93cddc681ed4579481c728e1b",
        "0x00000000000000000000000000000000000000000000000000000000000000010000000000000000000000000000000000000000000000000000000000000002ce06c5683c9b68ee1444ce73562b767b4558e09cf0d735c90f8fe28b468db34e00000000000000000000000068ce71c510f0f7ff6e47c5d982f73cdee87ebf5500000000000000000000000000000000000000000000000000000000000003e700000000000000000000000000000000000000000000000340aad21b3b700000"
      ],
      "transaction": {
        "from": "0xa680917d0ba08057afae9de3671748c586e777bb",
        "to": "0x7f0e4e7c48745b6e4f72737ff451c0a854a97fa0",
        "gas": "0x2d297",
        "value": "0x38d7ea4c68000",
        "input": "0x891ce13f000000000000000000000000000000000000000000000000000000000000000100000000000000000000000068ce71c510f0f7ff6e47c5d982f73cdee87ebf550000000000000000000000000000000000000000000000000000000000aa36a7000000000000000000000000000000000000000000000000000000000000000100000000000000000000000066501a555529cab145d42b529e44c8c4fe1c811b00000000000000000000000000000000000000000000000000000000000003e70000000000000000000000000000000000000000000000056bc75e2d63100000000000000000000000000000000000000000000000000002b5e3af16b188000000000000000000000000000068ce71c510f0f7ff6e47c5d982f73cdee87ebf550000000000000000000000000000000000000000000000008ac7230489e800000000000000000000000000000000000000000000000000000000000069946db800000000000000000000000000000000000000000000000000000000000000019c971b99bd32a1aa360aab5e089466188bc4eba241b33758f9e8c059216a051600000000000000000000000000000000000000000000000000038d7ea4c68000000000000000000000000000000000000000000000000000000000000000020000000000000000000000000000000000000000000000000000000000000002800000000000000000000000000000000000000000000000000000000000000041fccad62082789927a94d1966780a6f6796eba48539cb4473f09c8dd147f2ca7126665a5d1504641083301c93dc35cd4f84764d9af93cddc681ed4579481c728e1b0000000000000000000000000000000000000000000000000000000000000000000000000000000000000000000000000000000000000000000000000000c000000000000000000000000000000000000000000000000000000000000000010000000000000000000000000000000000000000000000000000000000000002ce06c5683c9b68ee1444ce73562b767b4558e09cf0d735c90f8fe28b468db34e00000000000000000000000068ce71c510f0f7ff6e47c5d982f73cdee87ebf5500000000000000000000000000000000000000000000000000000000000003e700000000000000000000000000000000000000000000000340aad21b3b700000",
        "nonce": "0x3",
        "chainId": "0xaa36a7"
      },
      "additionalContracts": [],
      "isFixedGasLimit": false
    }
  ],
  "receipts": [
    {
      "status": "0x1",
      "cumulativeGasUsed": "0xf758a2",
      "logs": [
        {
          "address": "0x66501a555529cab145d42b529e44c8c4fe1c811b",
          "topics": [
            "0xddf252ad1be2c89b69c2b068fc378daa952ba7f163c4a11628f55a4df523b3ef",
            "0x00000000000000000000000068ce71c510f0f7ff6e47c5d982f73cdee87ebf55",
            "0x000000000000000000000000a680917d0ba08057afae9de3671748c586e777bb"
          ],
          "data": "0x00000000000000000000000000000000000000000000000567a11b42ef388000",
          "blockHash": "0x92a5c1d6d805fb7c6597bc82385d7e9138ee01422768123faf4d0132d4537052",
          "blockNumber": "0x9cd8a4",
          "blockTimestamp": "0x69945fd8",
          "transactionHash": "0x3c23fb9c98d114aafdfb2483fa6da70de8517322320e796794c839ba09870b87",
          "transactionIndex": "0x7f",
          "logIndex": "0xea",
          "removed": false
        },
        {
          "address": "0x66501a555529cab145d42b529e44c8c4fe1c811b",
          "topics": [
            "0xddf252ad1be2c89b69c2b068fc378daa952ba7f163c4a11628f55a4df523b3ef",
            "0x00000000000000000000000068ce71c510f0f7ff6e47c5d982f73cdee87ebf55",
            "0x000000000000000000000000230d8cfbd79ff8748090869a7f0f1aaf2ef9e826"
          ],
          "data": "0x0000000000000000000000000000000000000000000000000429d069189e0000",
          "blockHash": "0x92a5c1d6d805fb7c6597bc82385d7e9138ee01422768123faf4d0132d4537052",
          "blockNumber": "0x9cd8a4",
          "blockTimestamp": "0x69945fd8",
          "transactionHash": "0x3c23fb9c98d114aafdfb2483fa6da70de8517322320e796794c839ba09870b87",
          "transactionIndex": "0x7f",
          "logIndex": "0xeb",
          "removed": false
        }
      ],
      "logsBloom": "0x00000000000000000000000000040000080000000000000000000000000000000000000000000020000000000000000000000000001000000400000000000001000000000000000000000008000000000000000000000000000000000000000000000000000000000000000000000000000000000004000000000010000000000000000000000000000000000000000000000020000000000000000001000000000000800000000000000000000000000000000000000000000000000000000000010002000000000000000000000000000000000000000000000000000000000000000000010000000000000000000000000000000000000000000000000000",
      "type": "0x2",
      "transactionHash": "0x3c23fb9c98d114aafdfb2483fa6da70de8517322320e796794c839ba09870b87",
      "transactionIndex": "0x7f",
      "blockHash": "0x92a5c1d6d805fb7c6597bc82385d7e9138ee01422768123faf4d0132d4537052",
      "blockNumber": "0x9cd8a4",
      "gasUsed": "0x20b25",
      "effectiveGasPrice": "0xd26ce075",
      "from": "0xa680917d0ba08057afae9de3671748c586e777bb",
      "to": "0x7f0e4e7c48745b6e4f72737ff451c0a854a97fa0",
      "contractAddress": null
    }
  ],
  "libraries": [],
  "pending": [],
  "returns": {},
  "timestamp": 1771331546473,
  "chain": 11155111,
  "commit": "ffe6fc2"
}