{
  "transactions": [
    {
      "hash": "0x081db4af30a931b53822c54e19d6293f6cfc78a969f9a8435d777bf1739b2cb7",
      "transactionType": "CALL",
      "contractName": null,
      "contractAddress": "0x8746e8295da21a83b782945eb2edd9c0bb53dcdc",
      "function": "settle((uint256,address,uint256,uint256,address,address,uint256,uint256,address,uint256,uint256,uint256,bytes32),bytes,bytes)",
      "arguments": [
        "(1, 0x68ce71c510f0f7Ff6E47C5D982F73cDEE87EBF55, 11155111, 1, 0xbD8093928dcce3194465333dAe46C148986B60c1, 0x00000000000000000000000000000000000003E7, 100000000000000000000, 50000000000000000000, 0x68ce71c510f0f7Ff6E47C5D982F73cDEE87EBF55, 10000000000000000000, 1771330560, 1, 0x9c971b99bd32a1aa360aab5e089466188bc4eba241b33758f9e8c059216a0516)",
        "0xd3f715ac201949c7a2224624b342529f267d050bc939ecbc02ceb769f620d3eb053660a68267eed7263388723d3e20bb55e9f1802afe390d3ffbc64ae2acab891c",
        "0x00000000000000000000000000000000000000000000000000000000000000010000000000000000000000000000000000000000000000000000000000000002661aee046931a23c21c2a682aa8e63c1cfb3937fb19603bf1ebe94eed0aa775f00000000000000000000000068ce71c510f0f7ff6e47c5d982f73cdee87ebf5500000000000000000000000000000000000000000000000000000000000003e700000000000000000000000000000000000000000000000340aad21b3b700000"
      ],
      "transaction": {
        "from": "0xa680917d0ba08057afae9de3671748c586e777bb",
        "to": "0x8746e8295da21a83b782945eb2edd9c0bb53dcdc",
        "gas": "0x2ca7c",
        "value": "0x0",
        "input": "0x716fcb28000000000000000000000000000000000000000000000000000000000000000100000000000000000000000068ce71c510f0f7ff6e47c5d982f73cdee87ebf550000000000000000000000000000000000000000000000000000000000aa36a70000000000000000000000000000000000000000000000000000000000000001000000000000000000000000bd8093928dcce3194465333dae46c148986b60c100000000000000000000000000000000000000000000000000000000000003e70000000000000000000000000000000000000000000000056bc75e2d63100000000000000000000000000000000000000000000000000002b5e3af16b188000000000000000000000000000068ce71c510f0f7ff6e47c5d982f73cdee87ebf550000000000000000000000000000000000000000000000008ac7230489e800000000000000000000000000000000000000000000000000000000000069945c0000000000000000000000000000000000000000000000000000000000000000019c971b99bd32a1aa360aab5e089466188bc4eba241b33758f9e8c059216a051600000000000000000000000000000000000000000000000000000000000001e000000000000000000000000000000000000000000000000000000000000002600000000000000000000000000000000000000000000000000000000000000041d3f715ac201949c7a2224624b342529f267d050bc939ecbc02ceb769f620d3eb053660a68267eed7263388723d3e20bb55e9f1802afe390d3ffbc64ae2acab891c0000000000000000000000000000000000000000000000000000000000000000000000000000000000000000000000000000000000000000000000000000c000000000000000000000000000000000000000000000000000000000000000010000000000000000000000000000000000000000000000000000000000000002661aee046931a23c21c2a682aa8e63c1cfb3937fb19603bf1ebe94eed0aa775f00000000000000000000000068ce71c510f0f7ff6e47c5d982f73cdee87ebf5500000000000000000000000000000000000000000000000000000000000003e700000000000000000000000000000000000000000000000340aad21b3b700000",
        "nonce": "0x1",
        "chainId": "0xaa36a7"
      },
      "additionalContracts": [],
      "isFixedGasLimit": false
    }
  ],
  "receipts": [
    {
      "status": "0x1",
      "cumulativeGasUsed": "0x103202b",
      "logs": [
        {
          "address": "0xbd8093928dcce3194465333dae46c148986b60c1",
          "topics": [
            "0xddf252ad1be2c89b69c2b068fc378daa952ba7f163c4a11628f55a4df523b3ef",
            "0x00000000000000000000000068ce71c510f0f7ff6e47c5d982f73cdee87ebf55",
            "0x000000000000000000000000a680917d0ba08057afae9de3671748c586e777bb"
          ],
          "data": "0x000000000000000000000000000000000000000000000005679d8dc44a720000",
          "blockHash": "0xa400aa3fcaf29f02171ab922decd5c00a0c994bae51b2991bfa825ab41ec3427",
          "blockNumber": "0x9cd753",
          "blockTimestamp": "0x69944e14",
          "transactionHash": "0x081db4af30a931b53822c54e19d6293f6cfc78a969f9a8435d777bf1739b2cb7",
          "transactionIndex": "0x7e",
          "logIndex": "0x14f",
          "removed": false
        },
        {
          "address": "0xbd8093928dcce3194465333dae46c148986b60c1",
          "topics": [
            "0xddf252ad1be2c89b69c2b068fc378daa952ba7f163c4a11628f55a4df523b3ef",
            "0x00000000000000000000000068ce71c510f0f7ff6e47c5d982f73cdee87ebf55",
            "0x000000000000000000000000230d8cfbd79ff8748090869a7f0f1aaf2ef9e826"
          ],
          "data": "0x0000000000000000000000000000000000000000000000000429d069189e0000",
          "blockHash": "0xa400aa3fcaf29f02171ab922decd5c00a0c994bae51b2991bfa825ab41ec3427",
          "blockNumber": "0x9cd753",
          "blockTimestamp": "0x69944e14",
          "transactionHash": "0x081db4af30a931b53822c54e19d6293f6cfc78a969f9a8435d777bf1739b2cb7",
          "transactionIndex": "0x7e",
          "logIndex": "0x150",
          "removed": false
        }
      ],
      "logsBloom": "0x00000000000000008000000000000000080000000000000000000000000000000000000000000020000000000000000000000000001000000400000000000001000000000000000000000008000000000000000000000000000000000000000000000000000010000000000000000000000000000004000000000010000000000000000000000000000000000000000000000020000000000000000001000000000000000000000000000000000000000000000000000000000000000000000000000002000040000000000000000000000000000000000000000000000000000000000000010000000000000000000000000000000000000000000000000000",
      "type": "0x2",
      "transactionHash": "0x081db4af30a931b53822c54e19d6293f6cfc78a969f9a8435d777bf1739b2cb7",
      "transactionIndex": "0x7e",
      "blockHash": "0xa400aa3fcaf29f02171ab922decd5c00a0c994bae51b2991bfa825ab41ec3427",
      "blockNumber": "0x9cd753",
      "gasUsed": "0x20547",
      "effectiveGasPrice": "0x10f0f9592",
      "from": "0xa680917d0ba08057afae9de3671748c586e777bb",
      "to": "0x8746e8295da21a83b782945eb2edd9c0bb53dcdc",
      "contractAddress": null
    }
  ],
  "libraries": [],
  "pending": [],
  "returns": {},
  "timestamp": 1771326997451,
  "chain": 11155111,
  "commit": "ffe6fc2"
}