{
  "transactions": [
    {
      "hash": "0x6da33fc09983d96d28e6f187f414ed9cf095d097e677b07c9fc0dce0e3e1ae17",
      "transactionType": "CALL",
      "contractName": null,
      "contractAddress": "0x8746e8295da21a83b782945eb2edd9c0bb53dcdc",
      "function": "settle((uint256,address,uint256,uint256,address,address,uint256,uint256,address,uint256,uint256,uint256,bytes32),bytes,bytes)",
      "arguments": [
        "(1, 0x68ce71c510f0f7Ff6E47C5D982F73cDEE87EBF55, 11155111, 1, 0x0000000000000000000000000000000000000000, 0x00000000000000000000000000000000000003E7, 10000000000000000, 5000000000000000, 0x68ce71c510f0f7Ff6E47C5D982F73cDEE87EBF55, 5000000000000000, 1771329084, 3, 0xf061100329c16b00d6577d146f1db6024350cca53b6b528571f20c83cc456c84)",
        "0x55e08c696b14c7f66c650c346bb31b340136e22c4756943282f86be7b8171a113d4772babdac572b0dac3b449ffd61bed58b28872fed423ed6bf69bd5a05895b1b",
        "0x00000000000000000000000000000000000000000000000000000000000000010000000000000000000000000000000000000000000000000000000000000002bfde0793624caf13b94871c5f29cb21eae62e3960c14743a03845353b2c3468000000000000000000000000068ce71c510f0f7ff6e47c5d982f73cdee87ebf5500000000000000000000000000000000000000000000000000000000000003e7000000000000000000000000000000000000000000000000001550f7dca70000"
      ],
      "transaction": {
        "from": "0xa680917d0ba08057afae9de3671748c586e777bb",
        "to": "0x8746e8295da21a83b782945eb2edd9c0bb53dcdc",
        "gas": "0x1db57",
        "value": "0x2386f26fc10000",
        "input": "0x716fcb28000000000000000000000000000000000000000000000000000000000000000100000000000000000000000068ce71c510f0f7ff6e47c5d982f73cdee87ebf550000000000000000000000000000000000000000000000000000000000aa36a70000000000000000000000000000000000000000000000000000000000000001000000000000000000000000000000000000000000000000000000000000000000000000000000000000000000000000000000000000000000000000000003e7000000000000000000000000000000000000000000000000002386f26fc100000000000000000000000000000000000000000000000000000011c37937e0800000000000000000000000000068ce71c510f0f7ff6e47c5d982f73cdee87ebf550000000000000000000000000000000000000000000000000011c37937e08000000000000000000000000000000000000000000000000000000000006994563c0000000000000000000000000000000000000000000000000000000000000003f061100329c16b00d6577d146f1db6024350cca53b6b528571f20c83cc456c8400000000000000000000000000000000000000000000000000000000000001e00000000000000000000000000000000000000000000000000000000000000260000000000000000000000000000000000000000000000000000000000000004155e08c696b14c7f66c650c346bb31b340136e22c4756943282f86be7b8171a113d4772babdac572b0dac3b449ffd61bed58b28872fed423ed6bf69bd5a05895b1b0000000000000000000000000000000000000000000000000000000000000000000000000000000000000000000000000000000000000000000000000000c000000000000000000000000000000000000000000000000000000000000000010000000000000000000000000000000000000000000000000000000000000002bfde0793624caf13b94871c5f29cb21eae62e3960c14743a03845353b2c3468000000000000000000000000068ce71c510f0f7ff6e47c5d982f73cdee87ebf5500000000000000000000000000000000000000000000000000000000000003e7000000000000000000000000000000000000000000000000001550f7dca70000",
        "nonce": "0x0",
        "chainId": "0xaa36a7"
      },
      "additionalContracts": [],
      "isFixedGasLimit": false
    }
  ],
  "receipts": [
    {
      "status": "0x1",
      "cumulativeGasUsed": "0x7a061b",
      "logs": [],
      "logsBloom": "0x00000000000000000000000000000000000000000000000000000000000000000000000000000000000000000000000000000000000000000000000000000000000000000000000000000000000000000000000000000000000000000000000000000000000000000000000000000000000000000000000000000000000000000000000000000000000000000000000000000000000000000000000000000000000000000000000000000000000000000000000000000000000000000000000000000000000000000000000000000000000000000000000000000000000000000000000000000000000000000000000000000000000000000000000000000000",
      "type": "0x2",
      "transactionHash": "0x6da33fc09983d96d28e6f187f414ed9cf095d097e677b07c9fc0dce0e3e1ae17",
      "transactionIndex": "0x60",
      "blockHash": "0x1511fecdf8693500618a19cd004912b1f819fb583e09da57205168719d129085",
      "blockNumber": "0x9cd6e7",
      "gasUsed": "0x15824",
      "effectiveGasPrice": "0xee01aac4",
      "from": "0xa680917d0ba08057afae9de3671748c586e777bb",
      "to": "0x8746e8295da21a83b782945eb2edd9c0bb53dcdc",
      "contractAddress": null
    }
  ],
  "libraries": [],
  "pending": [],
  "returns": {},
  "timestamp": 1771325510943,
  "chain": 11155111,
  "commit": "ffe6fc2"
}