{
  "transactions": [
    {
      "hash": "0xc69fb3a069b0f32454246f401de007be368003b26216c78943b2ea3396c5af55",
      "transactionType": "CALL",
      "contractName": null,
      "contractAddress": "0x8746e8295da21a83b782945eb2edd9c0bb53dcdc",
      "function": "settle((uint256,address,uint256,uint256,address,address,uint256,uint256,address,uint256,uint256,uint256,bytes32),bytes,bytes)",
      "arguments": [
        "(1, 0x230d8CFBd79FF8748090869A7f0F1AAF2EF9e826, 11155111, 1, 0x0000000000000000000000000000000000000000, 0x00000000000000000000000000000000000003E7, 10000000000000000, 5000000000000000, 0x230d8CFBd79FF8748090869A7f0F1AAF2EF9e826, 5000000000000000, 1771326120, 2, 0xf061100329c16b00d6577d146f1db6024350cca53b6b528571f20c83cc456c84)",
        "0x30d418e0c4ac95ac6c26e7222cab5dc96797344beffd1fde492cdb05a94baab61b9ea39903ff1423c9b5e246667677dc453b614db1babca497148f1f72fddc971c",
        "0x000000000000000000000000000000000000000000000000000000000000000100000000000000000000000000000000000000000000000000000000000000029b99947e5c8d2e0597707b9ba7762b3e7dc239bf55a27e9f708ebaa57be42f99000000000000000000000000230d8cfbd79ff8748090869a7f0f1aaf2ef9e82600000000000000000000000000000000000000000000000000000000000003e7000000000000000000000000000000000000000000000000001550f7dca70000"
      ],
      "transaction": {
        "from": "0x230d8cfbd79ff8748090869a7f0f1aaf2ef9e826",
        "to": "0x8746e8295da21a83b782945eb2edd9c0bb53dcdc",
        "gas": "0x1cddb",
        "value": "0x2386f26fc10000",
        "input": "0x716fcb280000000000000000000000000000000000000000000000000000000000000001000000000000000000000000230d8cfbd79ff8748090869a7f0f1aaf2ef9e8260000000000000000000000000000000000000000000000000000000000aa36a70000000000000000000000000000000000000000000000000000000000000001000000000000000000000000000000000000000000000000000000000000000000000000000000000000000000000000000000000000000000000000000003e7000000000000000000000000000000000000000000000000002386f26fc100000000000000000000000000000000000000000000000000000011c37937e08000000000000000000000000000230d8cfbd79ff8748090869a7f0f1aaf2ef9e8260000000000000000000000000000000000000000000000000011c37937e080000000000000000000000000000000000000000000000000000000000069944aa80000000000000000000000000000000000000000000000000000000000000002f061100329c16b00d6577d146f1db6024350cca53b6b528571f20c83cc456c8400000000000000000000000000000000000000000000000000000000000001e00000000000000000000000000000000000000000000000000000000000000260000000000000000000000000000000000000000000000000000000000000004130d418e0c4ac95ac6c26e7222cab5dc96797344beffd1fde492cdb05a94baab61b9ea39903ff1423c9b5e246667677dc453b614db1babca497148f1f72fddc971c0000000000000000000000000000000000000000000000000000000000000000000000000000000000000000000000000000000000000000000000000000c0000000000000000000000000000000000000000000000000000000000000000100000000000000000000000000000000000000000000000000000000000000029b99947e5c8d2e0597707b9ba7762b3e7dc239bf55a27e9f708ebaa57be42f99000000000000000000000000230d8cfbd79ff8748090869a7f0f1aaf2ef9e82600000000000000000000000000000000000000000000000000000000000003e7000000000000000000000000000000000000000000000000001550f7dca70000",
        "nonce": "0x3",
        "chainId": "0xaa36a7"
      },
      "additionalContracts": [],
      "isFixedGasLimit": false
    }
  ],
  "receipts": [
    {
      "status": "0x1",
      "cumulativeGasUsed": "0xc75527",
      "logs": [],
      "logsBloom": "0x00000000000000000000000000000000000000000000000000000000000000000000000000000000000000000000000000000000000000000000000000000000000000000000000000000000000000000000000000000000000000000000000000000000000000000000000000000000000000000000000000000000000000000000000000000000000000000000000000000000000000000000000000000000000000000000000000000000000000000000000000000000000000000000000000000000000000000000000000000000000000000000000000000000000000000000000000000000000000000000000000000000000000000000000000000000",
      "type": "0x2",
      "transactionHash": "0xc69fb3a069b0f32454246f401de007be368003b26216c78943b2ea3396c5af55",
      "transactionIndex": "0x6d",
      "blockHash": "0x72e8937af3deec5f0cc1d9572793618a7d751b84da4f8443b7f02bb1e0c78c73",
      "blockNumber": "0x9cd602",
      "gasUsed": "0x14e60",
      "effectiveGasPrice": "0xdc87c0d2",
      "from": "0x230d8cfbd79ff8748090869a7f0f1aaf2ef9e826",
      "to": "0x8746e8295da21a83b782945eb2edd9c0bb53dcdc",
      "contractAddress": null
    }
  ],
  "libraries": [],
  "pending": [],
  "returns": {},
  "timestamp": 1771322546539,
  "chain": 11155111,
  "commit": "ffe6fc2"
}