{
  "transactions": [
    {
      "hash": "0xaee89731e5bc41c3a572a68bac9d53e2dbf1aff3ac007343eaab86d17cbc1b85",
      "transactionType": "CALL",
      "contractName": null,
      "contractAddress": "0x940b885fcd241254686763d03259f3fe45ef05a4",
      "function": "settle((uint256,address,uint256,uint256,address,address,uint256,uint256,address,uint256,uint256,uint256,bytes32,uint256),bytes,bytes)",
      "arguments": [
        "(1, 0x68ce71c510f0f7Ff6E47C5D982F73cDEE87EBF55, 11155111, 1, 0x0000000000000000000000000000000000000000, 0x00000000000000000000000000000000000003E7, 10000000000000000, 5000000000000000, 0x68ce71c510f0f7Ff6E47C5D982F73cDEE87EBF55, 5000000000000000, 1771334016, 4, 0xf061100329c16b00d6577d146f1db6024350cca53b6b528571f20c83cc456c84, 1000000000000000)",
        "0xd1b94e6e4ee5cf19af79f6ffc6ec4205c5ab1cbb08f2cae365c434743afc45a64d51d007d4007df63706815a52f925e8d4952d5f6dd60c2176656b42366548d11b",
        "0x00000000000000000000000000000000000000000000000000000000000000010000000000000000000000000000000000000000000000000000000000000002bd3b4b8bcdf23af98da2e215c795ac752e72136f67ad8321a562aa51ddc597e200000000000000000000000068ce71c510f0f7ff6e47c5d982f73cdee87ebf5500000000000000000000000000000000000000000000000000000000000003e7000000000000000000000000000000000000000000000000001550f7dca70000"
      ],
      "transaction": {
        "from": "0xa680917d0ba08057afae9de3671748c586e777bb",
        "to": "0x940b885fcd241254686763d03259f3fe45ef05a4",
        "gas": "0x1f913",
        "value": "0x27147114878000",
        "input": "0x891ce13f000000000000000000000000000000000000000000000000000000000000000100000000000000000000000068ce71c510f0f7ff6e47c5d982f73cdee87ebf550000000000000000000000000000000000000000000000000000000000aa36a70000000000000000000000000000000000000000000000000000000000000001000000000000000000000000000000000000000000000000000000000000000000000000000000000000000000000000000000000000000000000000000003e7000000000000000000000000000000000000000000000000002386f26fc100000000000000000000000000000000000000000000000000000011c37937e0800000000000000000000000000068ce71c510f0f7ff6e47c5d982f73cdee87ebf550000000000000000000000000000000000000000000000000011c37937e0800000000000000000000000000000000000000000000000000000000000699469800000000000000000000000000000000000000000000000000000000000000004f061100329c16b00d6577d146f1db6024350cca53b6b528571f20c83cc456c8400000000000000000000000000000000000000000000000000038d7ea4c68000000000000000000000000000000000000000000000000000000000000000020000000000000000000000000000000000000000000000000000000000000002800000000000000000000000000000000000000000000000000000000000000041d1b94e6e4ee5cf19af79f6ffc6ec4205c5ab1cbb08f2cae365c434743afc45a64d51d007d4007df63706815a52f925e8d4952d5f6dd60c2176656b42366548d11b0000000000000000000000000000000000000000000000000000000000000000000000000000000000000000000000000000000000000000000000000000c000000000000000000000000000000000000000000000000000000000000000010000000000000000000000000000000000000000000000000000000000000002bd3b4b8bcdf23af98da2e215c795ac752e72136f67ad8321a562aa51ddc597e200000000000000000000000068ce71c510f0f7ff6e47c5d982f73cdee87ebf5500000000000000000000000000000000000000000000000000000000000003e7000000000000000000000000000000000000000000000000001550f7dca70000",
        "nonce": "0x2",
        "chainId": "0xaa36a7"
      },
      "additionalContracts": [],
      "isFixedGasLimit": false
    }
  ],
  "receipts": [
    {
      "status": "0x1",
      "cumulativeGasUsed": "0x121d7a1",
      "logs": [],
      "logsBloom": "0x00000000000000000000000000000000000000000000000000000000000000000000000000000000000000000000000000000000000000000000000000000000000000000000000000000000000000000000000000000000000000000000000000000000000000000000000000000000000000000000000000000000000000000000000000000000000000000000000000000000000000000000000000000000000000000000000000000000000000000000000000000000000000000000000000000000000000000000000000000000000000000000000000000000000000000000000000000000000000000000000000000000000000000000000000000000",
      "type": "0x2",
      "transactionHash": "0xaee89731e5bc41c3a572a68bac9d53e2dbf1aff3ac007343eaab86d17cbc1b85",
      "transactionIndex": "0x52",
      "blockHash": "0x2c6e1a4f77940114b44d3d3ac4378920f30ddb9ce6e22c0a06a1b5bd8db3416c",
      "blockNumber": "0x9cd84f",
      "gasUsed": "0x1595a",
      "effectiveGasPrice": "0x101bb4763",
      "from": "0xa680917d0ba08057afae9de3671748c586e777bb",
      "to": "0x940b885fcd241254686763d03259f3fe45ef05a4",
      "contractAddress": null
    }
  ],
  "libraries": [],
  "pending": [],
  "returns": {},
  "timestamp": 1771330453338,
  "chain": 11155111,
  "commit": "ffe6fc2"
}