{
  "transactions": [
    {
      "hash": "0x5da5fd3b109a02ade2bee161921176d5452c2801a66842465b37733352e50d27",
      "transactionType": "CALL",
      "contractName": null,
      "contractAddress": "0xbd8093928dcce3194465333dae46c148986b60c1",
      "function": "mint(address,uint256)",
      "arguments": [
        "0x18E50dE8DEa1d4dB392B30241CA27acCF56b8e9B",
        "1000000000000000000000"
      ],
      "transaction": {
        "from": "0x230d8cfbd79ff8748090869a7f0f1aaf2ef9e826",
        "to": "0xbd8093928dcce3194465333dae46c148986b60c1",
        "gas": "0x16fdd",
        "value": "0x0",
        "input": "0x40c10f1900000000000000000000000018e50de8dea1d4db392b30241ca27accf56b8e9b00000000000000000000000000000000000000000000003635c9adc5dea00000",
        "nonce": "0x5",
        "chainId": "0xaa36a7"
      },
      "additionalContracts": [],
      "isFixedGasLimit": false
    }
  ],
  "receipts": [
    {
      "status": "0x1",
      "cumulativeGasUsed": "0x8ab824",
      "logs": [
        {
          "address": "0xbd8093928dcce3194465333dae46c148986b60c1",
          "topics": [
            "0xddf252ad1be2c89b69c2b068fc378daa952ba7f163c4a11628f55a4df523b3ef",
            "0x0000000000000000000000000000000000000000000000000000000000000000",
            "0x00000000000000000000000018e50de8dea1d4db392b30241ca27accf56b8e9b"
          ],
          "data": "0x00000000000000000000000000000000000000000000003635c9adc5dea00000",
          "blockHash": "0x1689c0f4ebf44605735ec01043cbfb6ef65c597033818acbf633d74ea668351d",
          "blockNumber": "0x9cd73b",
          "blockTimestamp": "0x69944cb8",
          "transactionHash": "0x5da5fd3b109a02ade2bee161921176d5452c2801a66842465b37733352e50d27",
          "transactionIndex": "0x5b",
          "logIndex": "0x90",
          "removed": false
        }
      ],
      "logsBloom": "0x00000000000000018000000000000000000000000000000000000000000000000000000000000000000000000000000000000000000000000000000000000000000000000000000100000008000000000000000000000000000000000000000000000000020010000000000000000800000000000000000000000010000000000000000000000000000000000000000000000000000000040000000000000000000000000000000000000000000000000000000000000000000000000000000000000002000040000000000000000000000000000000000000000000000020000000000000000000000000000000000000000000000000000000000000000000",
      "type": "0x2",
      "transactionHash": "0x5da5fd3b109a02ade2bee161921176d5452c2801a66842465b37733352e50d27",
      "transactionIndex": "0x5b",
      "blockHash": "0x1689c0f4ebf44605735ec01043cbfb6ef65c597033818acbf633d74ea668351d",
      "blockNumber": "0x9cd73b",
      "gasUsed": "0x10a54",
      "effectiveGasPrice": "0xe821c74c",
      "from": "0x230d8cfbd79ff8748090869a7f0f1aaf2ef9e826",
      "to": "0xbd8093928dcce3194465333dae46c148986b60c1",
      "contractAddress": null
    }
  ],
  "libraries": [],
  "pending": [],
  "returns": {},
  "timestamp": 1771326649645,
  "chain": 11155111,
  "commit": "ffe6fc2"
}