{
  "transactions": [
    {
      "hash": "0x4f3339e55d58d65c7ac22d8711864f11229f11ae4026b88f5f5cf3ffec9a6d2d",
      "transactionType": "CALL",
      "contractName": null,
      "contractAddress": "0x66501a555529cab145d42b529e44c8c4fe1c811b",
      "function": "mint(address,uint256)",
      "arguments": [
        "0x68ce71c510f0f7Ff6E47C5D982F73cDEE87EBF55",
        "1000000000000000000000"
      ],
      "transaction": {
        "from": "0x230d8cfbd79ff8748090869a7f0f1aaf2ef9e826",
        "to": "0x66501a555529cab145d42b529e44c8c4fe1c811b",
        "gas": "0xb755",
        "value": "0x0",
        "input": "0x40c10f1900000000000000000000000068ce71c510f0f7ff6e47c5d982f73cdee87ebf5500000000000000000000000000000000000000000000003635c9adc5dea00000",
        "nonce": "0x13",
        "chainId": "0xaa36a7"
      },
      "additionalContracts": [],
      "isFixedGasLimit": false
    }
  ],
  "receipts": [
    {
      "status": "0x1",
      "cumulativeGasUsed": "0x155975e",
      "logs": [
        {
          "address": "0x66501a555529cab145d42b529e44c8c4fe1c811b",
          "topics": [
            "0xddf252ad1be2c89b69c2b068fc378daa952ba7f163c4a11628f55a4df523b3ef",
            "0x0000000000000000000000000000000000000000000000000000000000000000",
            "0x00000000000000000000000068ce71c510f0f7ff6e47c5d982f73cdee87ebf55"
          ],
          "data": "0x00000000000000000000000000000000000000000000003635c9adc5dea00000",
          "blockHash": "0xd4317b9b142f3a48a5b64276f8d61412e520d24c3dc53fa0f16d5026e9b3f748",
          "blockNumber": "0x9cd964",
          "blockTimestamp": "0x69946968",
          "transactionHash": "0x4f3339e55d58d65c7ac22d8711864f11229f11ae4026b88f5f5cf3ffec9a6d2d",
          "transactionIndex": "0x43",
          "logIndex": "0xa9",
          "removed": false
        }
      ],
      "logsBloom": "0x00000000000000000000000000040000080000000000000000000000000000000000000000000000000000000000000000000000000000000000000000000001000000000000000000000008000000000000000000000000000000000000000000000000020000000000000000000800000000000000000000000010000000000000000000000000000000000000000000000000000000000000000000000000000000800000000000000000000000000000000000000000000000000000000000010002000000000000000000000000000000000000000000000000000020000000000000010000000000000000000000000000000000000000000000000000",
      "type": "0x2",
      "transactionHash": "0x4f3339e55d58d65c7ac22d8711864f11229f11ae4026b88f5f5cf3ffec9a6d2d",
      "transactionIndex": "0x43",
      "blockHash": "0xd4317b9b142f3a48a5b64276f8d61412e520d24c3dc53fa0f16d5026e9b3f748",
      "blockNumber": "0x9cd964",
      "gasUsed": "0x84bc",
      "effectiveGasPrice": "0x1216cba2c",
      "from": "0x230d8cfbd79ff8748090869a7f0f1aaf2ef9e826",
      "to": "0x66501a555529cab145d42b529e44c8c4fe1c811b",
      "contractAddress": null
    }
  ],
  "libraries": [],
  "pending": [],
  "returns": {},
  "timestamp": 1771333993089,
  "chain": 11155111,
  "commit": "ffe6fc2"
}