{
  "transactions": [
    {
      "hash": "0xaf627637851441f34a18293518a23ee7cd241dc00363719de5760e2cfcfb0cc6",
      "transactionType": "CALL",
      "contractName": null,
      "contractAddress": "0x66501a555529cab145d42b529e44c8c4fe1c811b",
      "function": "approve(address,uint256)",
      "arguments": [
        "0x7f0E4e7C48745b6e4F72737fF451c0A854a97Fa0",
        "115792089237316195423570985008687907853269984665640564039457584007913129639935"
      ],
      "transaction": {
        "from": "0x68ce71c510f0f7ff6e47c5d982f73cdee87ebf55",
        "to": "0x66501a555529cab145d42b529e44c8c4fe1c811b",
        "gas": "0xf977",
        "value": "0x0",
        "input": "0x095ea7b30000000000000000000000007f0e4e7c48745b6e4f72737ff451c0a854a97fa0ffffffffffffffffffffffffffffffffffffffffffffffffffffffffffffffff",
        "nonce": "0x3",
        "chainId": "0xaa36a7"
      },
      "additionalContracts": [],
      "isFixedGasLimit": false
    }
  ],
  "receipts": [
    {
      "status": "0x1",
      "cumulativeGasUsed": "0xd41258",
      "logs": [
        {
          "address": "0x66501a555529cab145d42b529e44c8c4fe1c811b",
          "topics": [
            "0x8c5be1e5ebec7d5bd14f71427d1e84f3dd0314c0f7b2291e5b200ac8c7c3b925",
            "0x00000000000000000000000068ce71c510f0f7ff6e47c5d982f73cdee87ebf55",
            "0x0000000000000000000000007f0e4e7c48745b6e4f72737ff451c0a854a97fa0"
          ],
          "data": "0xffffffffffffffffffffffffffffffffffffffffffffffffffffffffffffffff",
          "blockHash": "0xc6d1b694d24a965e4327f8d60ed85d6d91beb60e534e6966503dcdc858a100b8",
          "blockNumber": "0x9cd89e",
          "blockTimestamp": "0x69945f84",
          "transactionHash": "0xaf627637851441f34a18293518a23ee7cd241dc00363719de5760e2cfcfb0cc6",
          "transactionIndex": "0x50",
          "logIndex": "0x13c",
          "removed": false
        }
      ],
      "logsBloom": "0x40000000040000000000000000040000080000000000000000000000000000000000000000000000000000000000000000000000000000000000000000200001000000000000000000000000000000000000000000000000000000000000000000000000000000000000000000000000000000000000000000000000000800000000000000000000000000000000000000000000000000000000000000000000020000800000000000000000000000000000000000000000000000000000000000010000000000000000000000000000000000000000000000000000000000000010000000010000000000000000000000000000000000000000000000000000",
      "type": "0x2",
      "transactionHash": "0xaf627637851441f34a18293518a23ee7cd241dc00363719de5760e2cfcfb0cc6",
      "transactionIndex": "0x50",
      "blockHash": "0xc6d1b694d24a965e4327f8d60ed85d6d91beb60e534e6966503dcdc858a100b8",
      "blockNumber": "0x9cd89e",
      "gasUsed": "0xb49d",
      "effectiveGasPrice": "0x1346b76f2",
      "from": "0x68ce71c510f0f7ff6e47c5d982f73cdee87ebf55",
      "to": "0x66501a555529cab145d42b529e44c8c4fe1c811b",
      "contractAddress": null
    }
  ],
  "libraries": [],
  "pending": [],
  "returns": {},
  "timestamp": 1771331461571,
  "chain": 11155111,
  "commit": "ffe6fc2"
}