{
  "transactions": [
    {
      "hash": "0x97fe8d976ca060524e6639e5d6b77414752f677e332a414e323c85b371313fe7",
      "transactionType": "CALL",
      "contractName": null,
      "contractAddress": "0x66501a555529cab145d42b529e44c8c4fe1c811b",
      "function": "approve(address,uint256)",
      "arguments": [
        "0x940B885fCd241254686763D03259F3fE45ef05a4",
        "115792089237316195423570985008687907853269984665640564039457584007913129639935"
      ],
      "transaction": {
        "from": "0x68ce71c510f0f7ff6e47c5d982f73cdee87ebf55",
        "to": "0x66501a555529cab145d42b529e44c8c4fe1c811b",
        "gas": "0xf977",
        "value": "0x0",
        "input": "0x095ea7b3000000000000000000000000940b885fcd241254686763d03259f3fe45ef05a4ffffffffffffffffffffffffffffffffffffffffffffffffffffffffffffffff",
        "nonce": "0x1",
        "chainId": "0xaa36a7"
      },
      "additionalContracts": [],
      "isFixedGasLimit": false
    }
  ],
  "receipts": [
    {
      "status": "0x1",
      "cumulativeGasUsed": "0x12c19be",
      "logs": [
        {
          "address": "0x66501a555529cab145d42b529e44c8c4fe1c811b",
          "topics": [
            "0x8c5be1e5ebec7d5bd14f71427d1e84f3dd0314c0f7b2291e5b200ac8c7c3b925",
            "0x00000000000000000000000068ce71c510f0f7ff6e47c5d982f73cdee87ebf55",
            "0x000000000000000000000000940b885fcd241254686763d03259f3fe45ef05a4"
          ],
          "data": "0xffffffffffffffffffffffffffffffffffffffffffffffffffffffffffffffff",
          "blockHash": "0x554b1753489caad3c7548f87206a7de5859bddcee6038eb6185bd3c802eacffb",
          "blockNumber": "0x9cd873",
          "blockTimestamp": "0x69945d74",
          "transactionHash": "0x97fe8d976ca060524e6639e5d6b77414752f677e332a414e323c85b371313fe7",
          "transactionIndex": "0x67",
          "logIndex": "0x101",
          "removed": false
        }
      ],
      "logsBloom": "0x00000000000000008008000000040000080000000000000000000000000000000000000000000000000000000000000000000000000000000000000000200001000000000000000000000000000000000000000000000000000000000000000000000000000000000000000000080000000000000000000000000000000000000000000000000000000000000000000000000000000000000000000000000000020000800000000000000000000000000000000000000000000000000000000000010000000000000000000000000000000000000000000000000000000000000010000000010000000000000000000000000000000000000000000000000000",
      "type": "0x2",
      "transactionHash": "0x97fe8d976ca060524e6639e5d6b77414752f677e332a414e323c85b371313fe7",
      "transactionIndex": "0x67",
      "blockHash": "0x554b1753489caad3c7548f87206a7de5859bddcee6038eb6185bd3c802eacffb",
      "blockNumber": "0x9cd873",
      "gasUsed": "0xb49d",
      "effectiveGasPrice": "0xc517e718",
      "from": "0x68ce71c510f0f7ff6e47c5d982f73cdee87ebf55",
      "to": "0x66501a555529cab145d42b529e44c8c4fe1c811b",
      "contractAddress": null
    }
  ],
  "libraries": [],
  "pending": [],
  "returns": {},
  "timestamp": 1771330933717,
  "chain": 11155111,
  "commit": "ffe6fc2"
}